{
  "transactions": [
    {
      "hash": "0x09c5e5adc5dbaa83d238b4952dba08d1af6fdf8d3a4691f61977150c518ddb68",
      "transactionType": "CALL",
      "contractName": null,
      "contractAddress": "0x7fa1a39fc8f2ce1db862ac2c127bbd1dbacd62b7",
      "function": "castVote(uint256,bool)",
      "arguments": [
        "1",
        "true"
      ],
      "transaction": {
        "from": "0x0de1343a2756eff757342b9fa567d2e2cdf93035",
        "to": "0x7fa1a39fc8f2ce1db862ac2c127bbd1dbacd62b7",
        "gas": "0x1c939",
        "value": "0x0",
        "input": "0x15373e3d00000000000000000000000000000000000000000000000000000000000000010000000000000000000000000000000000000000000000000000000000000001",
        "nonce": "0x9",
        "chainId": "0xaa37dc"
      },
      "additionalContracts": [],
      "isFixedGasLimit": false
    }
  ],
  "receipts": [
    {
      "status": "0x1",
      "cumulativeGasUsed": "0x107fe6",
      "logs": [
        {
          "address": "0x7fa1a39fc8f2ce1db862ac2c127bbd1dbacd62b7",
          "topics": [
            "0xa7a13493d42ea36718b051b30836352b5e73878411496329c2793fa0e2aa0aad",
            "0x0000000000000000000000000de1343a2756eff757342b9fa567d2e2cdf93035",
            "0x0000000000000000000000000000000000000000000000000000000000000001"
          ],
          "data": "0x000000000000000000000000000000000000000000000000000000000000000100000000000000000000000000000000000000000000d3c21bcecceda1000000",
          "blockHash": "0x1e9ae831e1a77d81867536d5670157406479bbd5b48495d9ec7acdf163e6acf7",
          "blockNumber": "0x1ae220e",
          "transactionHash": "0x09c5e5adc5dbaa83d238b4952dba08d1af6fdf8d3a4691f61977150c518ddb68",
          "transactionIndex": "0xf",
          "logIndex": "0x6",
          "removed": false
        }
      ],
      "logsBloom": "0x00002000000000000000000000000000001000000000000000000080000000000000000000000000400000000000000000000000000000000040000000040000000000000000000000008000000000000000000000040000000000000000004000000000000000000000000000000000000000000000000000000000000000000000000000000000000000000000000000000000000000000000000000000000000000000000000000000000000000000000000000000000000000000000000000000000000000000100000000000000000000000000000000000000000040000000000000000000200000000000000000000000000000000000000000000000",
      "type": "0x2",
      "transactionHash": "0x09c5e5adc5dbaa83d238b4952dba08d1af6fdf8d3a4691f61977150c518ddb68",
      "transactionIndex": "0xf",
      "blockHash": "0x1e9ae831e1a77d81867536d5670157406479bbd5b48495d9ec7acdf163e6acf7",
      "blockNumber": "0x1ae220e",
      "gasUsed": "0x138a2",
      "effectiveGasPrice": "0x61c",
      "from": "0x0de1343a2756eff757342b9fa567d2e2cdf93035",
      "to": "0x7fa1a39fc8f2ce1db862ac2c127bbd1dbacd62b7",
      "contractAddress": null,
      "l1BaseFeeScalar": "0x1db0",
      "l1BlobBaseFee": "0x1",
      "l1BlobBaseFeeScalar": "0xd2730",
      "l1Fee": "0x7a3e49",
      "l1GasPrice": "0xa0d84",
      "l1GasUsed": "0x640"
    }
  ],
  "libraries": [],
  "pending": [],
  "returns": {},
  "timestamp": 1748180937,
  "chain": 11155420,
  "commit": "a131eb7"
}